:020000040800F2
:100000000000082495230008491F00084B1F000822
:100010004D1F00084F1F0008511F0008000000007E
:10002000000000000000000000000000531F000856
:10003000551F000800000000571F0008591F000846
:10004000E9230008E9230008E9230008E923000860
:10005000E9230008E9230008E9230008E923000850
:10006000E9230008E9230008E9230008611F0008CC
:10007000711F0008811F0008E9230008E923000818
:10008000E9230008E9230008E9230008E923000820
:10009000E9230008E9230008E9230008E923000810
:1000A000E9230008E9230008E9230008E923000800
:1000B000E9230008E9230008E9230008E9230008F0
:1000C000E9230008E9230008E9230008E9230008E0
:1000D000911F0008A11F0008E9230008E923000878
:1000E000E9230008E923000800000000E9230008D4
:1000F000E9230008B51F0008E9230008E9230008E8
:10010000E9230008E9230008E9230008E92300089F
:10011000E9230008E9230008E9230008E92300088F
:10012000C51F0008E9230008E9230008E9230008A7
:10013000E9230008E9230008E9230008E92300086F
:1001400000000000000000000000000000000000AF
:10015000E9230008E9230008E9230008E92300084F
:10016000E9230008E9230008E9230008E92300083F
:10017000E9230008E9230008E9230008E92300082F
:10018000E9230008E9230008E9230008E92300081F
:10019000E9230008E9230008E9230008E92300080F
:1001A000E9230008E9230008E9230008E9230008FF
:1001B000E9230008E9230008E9230008E9230008EF
:1001C000E9230008E9230008E9230008E9230008DF
:1001D000E9230008E9230008E9230008E9230008CF
:1001E000E9230008E9230008E9230008E9230008BF
:1001F000E9230008E9230008E9230008E9230008AF
:10020000E9230008E9230008E9230008E92300089E
:10021000E9230008E9230008E9230008E92300088E
:10022000E9230008E9230008E92300080000000092
:10023000E9230008E923000800000000E923000882
:10024000E9230008E9230008E9230008E92300085E
:10025000E9230008E9230008E9230008E92300084E
:10026000E9230008E9230008E9230008E92300083E
:10027000E9230008E9230008E92300080000000042
:10028000E9230008E9230008E92300080000000032
:0802900000000000E923000852
:1002C00081F0004102E000BF83F0004330B54FEA07
:1002D00041044FEA430594EA050F08BF90EA020F74
:1002E0001FBF54EA000C55EA020C7FEA645C7FEA07
:1002F000655C00F0E2804FEA5454D4EB5555B8BF2A
:100300006D420CDD2C4480EA020281EA030382EA9A
:10031000000083EA010180EA020281EA0303362D2C
:1003200088BF30BD11F0004F4FEA01314FF4801CFF
:100330004CEA113102D0404261EB410113F0004F11
:100340004FEA03334CEA133302D0524263EB4303C8
:1003500094EA050F00F0A780A4F10104D5F1200E66
:100360000DDB02FA0EFC22FA05F2801841F10001C1
:1003700003FA0EF2801843FA05F359410EE0A5F195
:1003800020050EF1200E012A03FA0EFC28BF4CF0C6
:10039000020C43FA05F3C01851EBE37101F000457C
:1003A00007D54FF0000EDCF1000C7EEB00006EEB89
:1003B0000101B1F5801F1BD3B1F5001F0CD3490813
:1003C0005FEA30004FEA3C0C04F101044FEA44526A
:1003D00012F5800F80F09A80BCF1004F08BF5FEAF1
:1003E000500C50F1000041EB045141EA050130BDD1
:1003F0005FEA4C0C404141EB0101013C28BFB1F5E3
:10040000801FE9D291F0000F04BF01460020B1FA2D
:1004100081F308BF2033A3F10B03B3F120020CDA00
:100420000C3208DD02F1140CC2F10C0201FA0CF0DE
:1004300021FA02F10CE002F11402D8BFC2F1200C43
:1004400001FA02F120FA0CFCDCBF41EA0C019040F9
:10045000E41AA2BF01EB0451294330BD6FEA040442
:100460001F3C1CDA0C340EDC04F11404C4F120022D
:1004700020FA04F001FA02F340EA030021FA04F33F
:1004800045EA030130BDC4F10C04C4F1200220FA96
:1004900002F001FA04F340EA0300294630BD21FAD4
:1004A00004F0294630BD94F0000F83F4801306BF9A
:1004B00081F480110134013D4EE77FEA645C18BF8E
:1004C0007FEA655C29D094EA050F08BF90EA020F25
:1004D00005D054EA000C04BF1946104630BD91EA1D
:1004E000030F1EBF0021002030BD5FEA545C05D120
:1004F0004000494128BF41F0004130BD14F580045F
:100500003CBF01F5801130BD01F0004545F0FE41D2
:1005100041F470014FF0000030BD7FEA645C1ABF07
:10052000194610467FEA655C1CBF0B46024650EA3E
:10053000013406BF52EA033591EA030F41F400216A
:1005400030BD00BF90F0000F04BF0021704730B5F0
:100550004FF4806404F132044FF000054FF00001C5
:1005600050E700BF90F0000F04BF0021704730B586
:100570004FF4806404F1320410F0004548BF40425B
:100580004FF000013EE700BF42004FEAE2014FEAB0
:1005900031014FEA02701FBF12F07F4393F07F4F8B
:1005A00081F06051704732F07F4208BF704793F08E
:1005B0007F4F04BF41F40021704730B54FF46074A1
:1005C00001F0004521F000411CE700BF50EA0102A4
:1005D00008BF704730B54FF000050AE050EA01024D
:1005E00008BF704730B511F0004502D5404261EBBD
:1005F00041014FF4806404F132045FEA915C3FF4FE
:10060000D8AE4FF003025FEADC0C18BF03325FEA9A
:10061000DC0C18BF033202EBDC02C2F1200300FA4B
:1006200003FC20FA02F001FA03FE40EA0E0021FA70
:1006300002F11444BDE600BF70B54FF0FF0C4CF45E
:10064000E06C1CEA11541DBF1CEA135594EA0C0F10
:1006500095EA0C0F00F0DEF82C4481EA030621EA4B
:100660004C5123EA4C5350EA013518BF52EA033586
:1006700041F4801143F4801338D0A0FB02CE4FF038
:100680000005E1FB02E506F00042E0FB03E54FF068
:100690000006E1FB03569CF0000F18BF4EF0010E60
:1006A000A4F1FF04B6F5007F64F5407404D25FEA5C
:1006B0004E0E6D4146EB060642EAC62141EA55510F
:1006C0004FEAC52040EA5E504FEACE2EB4F1FD0C51
:1006D00088BFBCF5E06F1ED8BEF1004F08BF5FEACF
:1006E000500E50F1000041EB045170BD06F0004681
:1006F00046EA010140EA020081EA0301B4EB5C042E
:10070000C2BFD4EB0C0541EA045170BD41F4801125
:100710004FF0000E013C00F3AB8014F1360FDEBF4A
:10072000002001F0004170BDC4F10004203C35DA26
:100730000C341BDC04F11404C4F1200500FA05F3A9
:1007400020FA04F001FA05F240EA020001F000424A
:1007500021F0004110EBD37021FA04F642EB0601C0
:100760005EEA430E08BF20EAD37070BDC4F10C04EA
:10077000C4F1200500FA04F320FA05F001FA04F2AE
:1007800040EA020001F0004110EBD37041F100019A
:100790005EEA430E08BF20EAD37070BDC4F12005A5
:1007A00000FA05F24EEA020E20FA04F301FA05F20D
:1007B00043EA020321FA04F001F0004121FA04F2B5
:1007C00020EA020000EBD3705EEA430E08BF20EA85
:1007D000D37070BD94F0000F0FD101F000464000BF
:1007E00041EB010111F4801F08BF013CF7D041EA41
:1007F000060195F0000F18BF704703F00046520045
:1008000043EB030313F4801F08BF013DF7D043EA15
:100810000603704794EA0C0F0CEA135518BF95EACB
:100820000C0F0CD050EA410618BF52EA4306D1D152
:1008300081EA030101F000414FF0000070BD50EA71
:10084000410606BF1046194652EA430619D094EAFB
:100850000C0F02D150EA013613D195EA0C0F05D1E5
:1008600052EA03361CBF104619460AD181EA030139
:1008700001F0004141F0FE4141F470014FF00000F1
:1008800070BD41F0FE4141F4780170BD70B54FF08C
:10089000FF0C4CF4E06C1CEA11541DBF1CEA13550C
:1008A00094EA0C0F95EA0C0F00F0A7F8A4EB0504EE
:1008B00081EA030E52EA03354FEA013100F08880E5
:1008C0004FEA03334FF0805545EA131343EA1263AE
:1008D0004FEA022245EA111545EA10654FEA002663
:1008E0000EF000419D4208BF964244F1FD0404F51C
:1008F000407402D25B084FEA3202B61A65EB030578
:100900005B084FEA32024FF480104FF4002CB6EB34
:10091000020E75EB030E22BFB61A754640EA0C00B4
:100920005B084FEA3202B6EB020E75EB030E22BFF4
:10093000B61A754640EA5C005B084FEA3202B6EB35
:10094000020E75EB030E22BFB61A754640EA9C00F4
:100950005B084FEA3202B6EB020E75EB030E22BFC4
:10096000B61A754640EADC0055EA060E18D04FEA82
:10097000051545EA16754FEA06164FEAC30343EA22
:1009800052734FEAC2025FEA1C1CC0D111F4801FEF
:100990000BD141EA00014FF000004FF0004CB6E7E8
:1009A00011F4801F04BF01430020B4F1FD0C88BF87
:1009B000BCF5E06F3FF6AFAEB5EB030C04BFB6EB92
:1009C000020C5FEA500C50F1000041EB045170BD85
:1009D0000EF0004E4EEA113114EB5C04C2BFD4EBB2
:1009E0000C0541EA045170BD41F480114FF0000E36
:1009F000013C90E645EA060E8DE60CEA135594EAB2
:100A00000C0F08BF95EA0C0F3FF43BAF94EA0C0FB4
:100A10000AD150EA01347FF434AF95EA0C0F7FF429
:100A200025AF104619462CE795EA0C0F06D152EA7D
:100A300003353FF4FDAE1046194622E750EA410661
:100A400018BF52EA43067FF4C5AE50EA41047FF472
:100A50000DAF52EA43057FF4EBAE12E74FF0FF3CD7
:100A600006E000BF4FF0010C02E000BF4FF0010CA8
:100A70004DF804CD4FEA410C7FEA6C5C4FEA430C21
:100A800018BF7FEA6C5C1BD001B050EA410C0CBF70
:100A900052EA430C91EA030F02BF90EA020F0020D2
:100AA000704710F1000F91EA030F58BF994208BF39
:100AB00090422CBFD8176FEAE37040F001007047F6
:100AC0004FEA410C7FEA6C5C02D150EA013C07D14D
:100AD0004FEA430C7FEA6C5CD6D152EA033CD3D098
:100AE0005DF8040B704700BF8446104662468C4692
:100AF0001946634600E000BF01B5FFF7B7FF0028C5
:100B000048BF10F1000F01BD4DF808EDFFF7F4FFED
:100B10000CBF012000205DF808FB00BF4DF808ED78
:100B2000FFF7EAFF34BF012000205DF808FB00BF9B
:100B30004DF808EDFFF7E0FF94BF012000205DF8BD
:100B400008FB00BF4DF808EDFFF7CEFF94BF012072
:100B500000205DF808FB00BF4DF808EDFFF7C4FF6B
:100B600034BF012000205DF808FB00BF4FEA4102BE
:100B7000B2F1E04324BFB3F5001CDCF1FE5C0DD9FB
:100B800001F0004C4FEAC0024CEA5070B2F1004F45
:100B900040EB830008BF20F00100704711F0804F48
:100BA00021D113F13872BCBF01F00040704741F40D
:100BB00080114FEA5252C2F11802C2F1200C10FA11
:100BC0000CF320FA02F018BF40F001004FEAC123F5
:100BD0004FEAD32303FA0CFC40EA0C0023FA02F399
:100BE0004FEA4303CCE77FEA625307D150EA01336F
:100BF0001EBF4FF0FE4040F44000704701F000403F
:100C000040F0FE4040F40000704700BF80F000401C
:100C100002E000BF81F0004142001FBF5FEA4103D4
:100C200092EA030F7FEA226C7FEA236C6AD04FEAD4
:100C30001262D2EB1363C1BFD21841404840414019
:100C4000B8BF5B42192B88BF704710F0004F40F4CB
:100C5000000020F07F4018BF404211F0004F41F4E7
:100C6000000121F07F4118BF494292EA030F3FD0B3
:100C7000A2F1010241FA03FC10EB0C00C3F12003C6
:100C800001FA03F100F0004302D5494260EB400055
:100C9000B0F5000F13D3B0F1807F06D340084FEAC0
:100CA000310102F10102FE2A51D2B1F1004F40EBB5
:100CB000C25008BF20F0010040EA0300704749001D
:100CC00040EB0000013A28BFB0F5000FEDD2B0FABA
:100CD00080FCACF1080CB2EB0C0200FA0CF0AABFDD
:100CE00000EBC25052421843BCBFD040184370477B
:100CF00092F0000F81F4000106BF80F40000013281
:100D0000013BB5E74FEA41037FEA226C18BF7FEA57
:100D1000236C21D092EA030F04D092F0000F08BF99
:100D20000846704790EA010F1CBF0020704712F080
:100D30007F4F04D1400028BF40F00040704712F1BF
:100D400000723CBF00F50000704700F0004343F024
:100D5000FE4040F4000070477FEA226216BF08465A
:100D60007FEA23630146420206BF5FEA412390EA1D
:100D7000010F40F4800070474FF0000304E000BF13
:100D800010F0004348BF40425FEA000C08BF7047C4
:100D900043F0964301464FF000001CE050EA010288
:100DA00008BF70474FF000030AE000BF50EA01029D
:100DB00008BF704711F0004302D5404261EB41018A
:100DC0005FEA010C02BF84460146002043F0B643AF
:100DD00008BFA3F18053A3F50003BCFA8CF2083AD4
:100DE000A3EBC25310DB01FA02FC634400FA02FCDD
:100DF000C2F12002BCF1004F20FA02F243EB0200E4
:100E000008BF20F00100704702F1200201FA02FC45
:100E1000C2F1200250EA4C0021FA02F243EB020038
:100E200008BF20EADC7070474FF0FF0C1CEAD0527C
:100E30001EBF1CEAD15392EA0C0F93EA0C0F6FD03D
:100E40001A4480EA010C400218BF5FEA41211ED01B
:100E50004FF0006343EA501043EA5111A0FB013107
:100E60000CF00040B1F5000F3EBF490041EAD371DC
:100E70005B0040EA010062F17F02FD2A1DD8B3F158
:100E8000004F40EBC25008BF20F00100704790F0C7
:100E9000000F0CF0004C08BF49024CEA502040EA19
:100EA00051207F3AC2BFD2F1FF0340EAC2507047DF
:100EB00040F400004FF00003013A5DDC12F1190F1D
:100EC000DCBF00F000407047C2F10002410021FA8F
:100ED00002F1C2F1200200FA02FC5FEA310040F1A7
:100EE000000053EA4C0308BF20EADC70704792F020
:100EF000000F00F0004C02BF400010F4000F013A58
:100F0000F9D040EA0C0093F0000F01F0004C02BF52
:100F1000490011F4000F013BF9D041EA0C018FE7C1
:100F20000CEAD15392EA0C0F18BF93EA0C0F0AD0C7
:100F300030F0004C18BF31F0004CD8D180EA0100ED
:100F400000F00040704790F0000F17BF90F0004F86
:100F5000084691F0000F91F0004F14D092EA0C0F68
:100F600001D142020FD193EA0C0F03D14B0218BFFB
:100F7000084608D180EA010000F0004040F0FE4041
:100F800040F40000704740F0FE4040F440007047DD
:100F90004FF0FF0C1CEAD0521EBF1CEAD15392EA5C
:100FA0000C0F93EA0C0F69D0A2EB030280EA010C4C
:100FB00049024FEA402037D04FF0805343EA1111E5
:100FC00043EA10130CF000408B4238BF5B0042F143
:100FD0007D024FF4000C8B4224BF5B1A40EA0C00E8
:100FE000B3EB510F24BFA3EB510340EA5C00B3EB1A
:100FF000910F24BFA3EB910340EA9C00B3EBD10F08
:1010000024BFA3EBD10340EADC001B0118BF5FEA59
:101010001C1CE0D1FD2A3FF650AF8B4240EBC25082
:1010200008BF20F0010070470CF0004C4CEA502043
:101030007F32C2BFD2F1FF0340EAC250704740F492
:1010400000004FF00003013A37E792F0000F00F084
:10105000004C02BF400010F4000F013AF9D040EA02
:101060000C0093F0000F01F0004C02BF490011F496
:10107000000F013BF9D041EA0C0195E70CEAD1538E
:1010800092EA0C0F08D142027FF47DAF93EA0C0F75
:101090007FF470AF084676E793EA0C0F04D14B0259
:1010A0003FF44CAF08466EE730F0004C18BF31F00B
:1010B000004CCAD130F000427FF45CAF31F0004305
:1010C0007FF43CAF5FE700BF4FF0FF3C06E000BF9E
:1010D0004FF0010C02E000BF4FF0010C4DF804CDC1
:1010E0004FEA40024FEA41037FEA226C18BF7FEAD1
:1010F000236C11D001B052EA530C18BF90EA010FD3
:1011000058BFB2EB030088BFC81738BF6FEAE17061
:1011100018BF40F0010070477FEA226C02D15FEAFD
:10112000402C05D17FEA236CE4D15FEA412CE1D069
:101130005DF8040B704700BF844608466146FFE730
:101140000FB5FFF7C9FF002848BF10F1000F0FBD12
:101150004DF808EDFFF7F4FF0CBF012000205DF80B
:1011600008FB00BF4DF808EDFFF7EAFF34BF012090
:1011700000205DF808FB00BF4DF808EDFFF7E0FF29
:1011800094BF012000205DF808FB00BF4DF808ED7A
:10119000FFF7D2FF94BF012000205DF808FB00BFDD
:1011A0004DF808EDFFF7C8FF34BF012000205DF8BF
:1011B00008FB00BF4FEA4002B2F1FE4F0FD34FF0E1
:1011C0009E03B3EB12620DD94FEA002343F00043B4
:1011D00010F0004F23FA02F018BF404270474FF062
:1011E0000000704712F1610F01D1420205D110F0E9
:1011F000004008BF6FF0004070474FF0000070479C
:1012000042000ED2B2F1FE4F0BD34FF09E03B3EB70
:10121000126209D44FEA002343F0004323FA02F09C
:1012200070474FF00000704712F1610F01D1420288
:1012300002D14FF0FF3070474FF00000704700BF01
:1012400053B94AB9002908BF00281CBF4FF0FF312D
:101250004FF0FF3000F00CB8ADF1080C6DE904CE92
:101260000CF092FADDF804E0DDE9022304B07047E7
:10127000704700BF000000000000000000000000F8
:1012800002780B78012A28BF9A4240F0D8806DE995
:10129000044540EA0104CDE902676FF0000C4FEA13
:1012A00044721AB380EA010414F0070F6BD100F006
:1012B000070420F0070004F0030521F007014FEABE
:1012C000C505F0E8042314F0040FF1E804670CFAF4
:1012D00005F462EA040266EA04060BD063EA04033A
:1012E000624667EA0407664604E000BFF0E80423AC
:1012F000F1E8046782FA4CF582EA0604A4FA8CF459
:101300006CBB83FA4CF583EA0705A5FA8CF595B911
:1013100050E9022351E9026782FA4CF582EA060499
:10132000A4FA8CF483FA4CF583EA0705A5FA8CF548
:101330002543DBD09CB92DBAB5FA85F424F0070417
:1013400027FA04F1DDE9026723FA04F303F0FF0052
:1013500001F0FF01FDE80445A0EB0100704724BA4D
:10136000B4FA84F424F0070426FA04F1DDE90267F4
:1013700022FA04F202F0FF0001F0FF01FDE804454B
:10138000A0EB0100704714F0030F3CD110F00304F0
:1013900028D150F8082B51F8083B82FA4CF582EA24
:1013A0000305A5FA8CF55DB950F8042C51F8043CFE
:1013B00082FA4CF582EA0305A5FA8CF5002DE8D0F7
:1013C0002DBAB5FA85F424F0070423FA04F122FAC1
:1013D00004F202F0FF0001F0FF01FDE80445A0EB7C
:1013E000010070474FEAC40420F0030050F8082BB6
:1013F00021F0030151F8083B0CFA04F462EA0402FC
:1014000063EA0403C9E710F003041DD0A1EB040153
:1014100020F00300E40750F8042B06D012D28B789A
:101420005FFAA2F4E41A06D12BB1CB785FFAB2F4DA
:10143000E41A00D133B920465DF8104B7047A2EB97
:101440000300704701F1040150F8042BCC0721F090
:10145000030151F8043B48D824D222F07F4482FA99
:101460004CF594EA1325A5FA8CF50AD165B951F823
:10147000043B84EA0204B4EB036F0ED150F8042B52
:10148000EBE74FEA132355E035F07F454DD108785F
:10149000FDE80445C0F1000070474FEA126203F016
:1014A000FF0347E002EA1C4482FA4CF594EA134534
:1014B000A5FA8CF50AD165B951F8043B84EA020417
:1014C000B4EB034F0CD150F8042BEBE74FEA134376
:1014D00030E015EA1C4528D10B884FEA124229E07A
:1014E0004FEA124203EA1C4324E002F0FF0482FAAE
:1014F0004CF594EA1365A5FA8CF50AD165B951F853
:10150000043B84EA0204B4EB032F09D150F8042B06
:10151000EBE74FEA13630DE015F0FF0F05D10B6801
:101520004FEA122223F07F4304E04FF00000FDE871
:101530000445704712BA1BBA82FA4CF482EA0304DB
:10154000A4FA8CF5B5FA85F402FA04F203FA04F36E
:101550004FEA1260FDE80445A0EB1360704700BF3E
:10156000844641EA000313F003036DD1403A41D3AE
:1015700051F8043B40F8043B51F8043B40F8043B6D
:1015800051F8043B40F8043B51F8043B40F8043B5D
:1015900051F8043B40F8043B51F8043B40F8043B4D
:1015A00051F8043B40F8043B51F8043B40F8043B3D
:1015B00051F8043B40F8043B51F8043B40F8043B2D
:1015C00051F8043B40F8043B51F8043B40F8043B1D
:1015D00051F8043B40F8043B51F8043B40F8043B0D
:1015E00051F8043B40F8043B51F8043B40F8043BFD
:1015F000403ABDD2303211D351F8043B40F8043B9D
:1016000051F8043B40F8043B51F8043B40F8043BDC
:1016100051F8043B40F8043B103AEDD20C3205D3AC
:1016200051F8043B40F8043B043AF9D2043208D0A4
:10163000D2071CBF11F8013B00F8013B01D30B8816
:1016400003806046704700BF082A13D38B078DD0F4
:1016500010F003038AD0C3F10403D21ADB071CBFC6
:1016600011F8013B00F8013B80D331F8023B20F830
:10167000023B7BE7043AD9D3013A11F8013B00F869
:10168000013BF9D20B7803704B7843708B788370F1
:1016900060467047000000000000000000000000ED
:1016A000000000000000000000000000000000003A
:1016B000000000000000000000000000000000002A
:1016C00030B490F800F020F007016FF0000C10F03B
:1016D000070491F820F040F048804FF000046FF0CC
:1016E0000700D1E9002391F840F000F1080082FAE8
:1016F0004CF2A4FA8CF283FA4CF3A2FA8CF34BBBB3
:10170000D1E9022382FA4CF200F10800A4FA8CF22B
:1017100083FA4CF3A2FA8CF3E3B9D1E9042382FAF9
:101720004CF200F10800A4FA8CF283FA4CF3A2FA0E
:101730008CF37BB9D1E9062301F1200182FA4CF246
:1017400000F10800A4FA8CF283FA4CF3A2FA8CF3AD
:10175000002BC6D0002A04BF04301A4612BAB2FACF
:1017600082F200EBD20030BC7047D1E9002304F0D4
:101770000305C4F100004FEAC50514F0040F91F809
:1017800040F00CFA05F562EA05021CBF63EA0503A6
:1017900062464FF00004AAE70000000000000000CD
:1017A00001F0FF01102A2BDB10F0070F08D010F812
:1017B000013B013A8B422DD010F0070F42B3F6D116
:1017C000F0B441EA012141EA014122F007047FF02F
:1017D00000070023F0E80256083C85EA010586EA86
:1017E000010685FA47F5A3FA87F586FA47F6A5FAC2
:1017F00087F68EB9EED1F0BC01F0FF0102F00702CE
:1018000032B110F8013B013A83EA010313B1F8D178
:101810000020704701387047002D06BF3546033859
:10182000073815F0010F07D1013015F4807F02BF92
:10183000013015F4C03F0130F0BC0138704700BFE3
:101840004FEA410C7FEA6C5C02D150EA013C0AD1BC
:101850004FEA430C7FEA6C5C02D152EA033C02D1AE
:101860004FF0000070474FF0010070474FEA41020F
:1018700012F5001215D211D56FF47873B3EB6252E2
:1018800012D94FEAC12343F0004343EA505311F009
:10189000004F23FA02F018BF404270474FF000009B
:1018A000704750EA013005D111F0004008BF6FF0D9
:1018B000004070474FF00000704700BF0348044BE2
:1018C000834202D0034B03B118477047B00900248C
:1018D000B0090024000000000548064B1B1AD90F70
:1018E00001EBA301491002D0034B03B11847704725
:1018F000B0090024B00900240000000010B5064C17
:10190000237843B9FFF7DAFF044B13B10448AFF370
:1019100000800123237010BDB009002400000000E6
:10192000385C010808B5054B1BB105490548AFF304
:101930000080BDE80840FFF7CFBF00BF00000000F7
:10194000B4090024385C010800B58BB0002307936C
:1019500008930993009301930293039304930593CF
:1019600006932148214A02604FF440324260082227
:101970008260C360042202610375012242758261A4
:101980000377436283620321C1620363436380F888
:101990003830C26301F026FAE0B90023079307A9A3
:1019A000114801F049FBC0B9114B00930623019384
:1019B0000023029340F2FF720392042204920593E3
:1019C0008DF819306946084800F02EFE40B90BB07A
:1019D0005DF804FB00F05BF9DFE700F058F9E3E79E
:1019E00000F055F9F3E700BF440A0024002002404C
:1019F0000000844B10B588B0002303930493059333
:101A0000069307930268234B9A4201D008B010BD99
:101A10000446214BD3F8D82042F02002C3F8D82046
:101A2000D3F8D82002F020020192019AD3F8E020E6
:101A300042F00102C3F8E020D3F8E03003F00103E4
:101A40000293029B102303930323049303A91348D7
:101A500002F0FAFF1248134B03600923436000238E
:101A60008360C3604FF4806202614FF48052426130
:101A70004FF4804282614FF48072C261036243621C
:101A800001F056FE18B9064BE3649C63BEE700F014
:101A9000FEF8F8E700200240004402580000025817
:101AA000CC0900241000024000B583B01D4BD3F8D0
:101AB000D82042F00202C3F8D820D3F8D82002F090
:101AC00002020092009AD3F8D82042F00102C3F833
:101AD000D820D3F8D83003F001030193019B0022F2
:101AE00001210B2001F0A2FB0B2001F0AFFB002233
:101AF00001210C2001F09AFB0C2001F0A7FB002231
:101B000001210D2001F092FB0D2001F09FFB00222E
:101B10000121382001F08AFB382001F097FB03B047
:101B20005DF804FB004402582DE9F0438BB005AD8D
:101B30000024059406940794089409943A4BD3F82A
:101B4000E02042F01002C3F8E020D3F8E02002F0D9
:101B500010020092009AD3F8E02042F08002C3F80D
:101B6000E020D3F8E02002F080020192019AD3F83D
:101B7000E02042F00402C3F8E020D3F8E02002F0B5
:101B800004020292029AD3F8E02042F00102C3F864
:101B9000E020D3F8E02002F001020392039AD3F888
:101BA000E02042F00202C3F8E020D3F8E03003F076
:101BB00002030493049BDFF87490224602214846F6
:101BC00003F05DF81A4F224645F20301384603F050
:101BD00056F80C23059306940126079629461548C6
:101BE00002F032FF02230593069607944FF0030894
:101BF000CDF820802946484602F026FF2023059391
:101C00000694079629460C4802F01EFF45F203038E
:101C1000059306960794CDF820802946384602F0B1
:101C200013FF0BB0BDE8F0830044025800000258D7
:101C300000040258001002580008025830B585B060
:101C40000024009401940294039401F017FB0123F3
:101C50008DF800308DF8014001941F228DF8082086
:101C600087228DF809208DF80A408DF80B408DF8F9
:101C70000C308DF80D308DF80E408DF80F40684611
:101C800001F01AFB042001F007FB05B030BD72B66D
:101C9000FEE7000000B59DB04C22002109A80CF021
:101CA00065FB2022002101A80CF060FB022002F05D
:101CB000EDFF00230093264B9A6942F440429A615B
:101CC0009B6903F440430093224BDA6A42F001021D
:101CD000DA62DB6A03F001030093009B1C4B9B69F3
:101CE00013F4005FFAD00223099301220C924022E0
:101CF0000D92129300221392042114913C2115910C
:101D00001693179318930C2319931A921B9209A8F0
:101D100002F0E6FFB8B93F230193032302930023A7
:101D20000393082304934023059306934FF48062A2
:101D30000792089304210DEB010003F03BFC20B94E
:101D40001DB05DF804FBFFF7A2FFFFF7A0FF00BF87
:101D5000004802580004005808B5FFF76FFF00F074
:101D60006DFBFFF797FFFFF7DFFEFFF79DFE00F02B
:101D700009F800F009FA00F045FAFFF7E5FD08F070
:101D800081FEFEE708B51648164B03604FF480034A
:101D90004360002383600722C2604FF0007202613B
:101DA0004FF0807242614FF0806282614FF080524A
:101DB000C261036243628362C3624FF08042426346
:101DC0008363C363036443648364C36403654365DB
:101DD000836505F023FB00B908BDFFF758FFFBE75B
:101DE000200B0024003800402DE9F041BAB0044631
:101DF000002135913691379138913991C02204A84C
:101E00000CF0B4FA2268414B9A4202D03AB0BDE8D5
:101E1000F0814FF480520023CDE90423042306937C
:101E2000102307930223089309930A93C0230B936B
:101E30004FF480531C9304A803F054FE00285FD194
:101E4000334BD3F8E82042F48042C3F8E820D3F8BB
:101E5000E82002F480420192019AD3F8E02042F097
:101E60000402C3F8E020D3F8E02002F0040202925A
:101E7000029AD3F8E02042F00202C3F8E020D3F83F
:101E8000E03003F002030393039B042335934FF0E8
:101E90000208CDF8D8800025379538950527399761
:101EA00035AE31461B4802F0CFFD4FF42043359349
:101EB000CDF8D8803795389539973146164802F0D5
:101EC000C3FD1648164B03602823436040238360FC
:101ED000C5604FF48063036145618561C56105623A
:101EE000456201F025FC70B90C4BA3679C6300228E
:101EF0001146242001F09AF9242001F0A7F985E782
:101F0000FFF7C5FE9CE7FFF7C2FEEDE70038004093
:101F1000004402580008025800040258A80A00248D
:101F20001004024082B0074BD3F8F42042F00202C2
:101F3000C3F8F420D3F8F43003F002030193019BBB
:101F400002B0704700440258FEE7FEE7FEE7FEE7F6
:101F5000FEE770477047704708B500F09DFA08BD6E
:101F600008B5024802F0D4F908BD00BFCC0900242E
:101F700008B5024802F0CCF908BD00BFF80B0024F8
:101F800008B5024802F0C4F908BD00BF700C002477
:101F900008B5024805F02CFC08BD00BF200B00244A
:101FA00008B5034806F062F808F010FC08BD00BF51
:101FB000E80C002408B5024805F086FD08BD00BF06
:101FC000AC0B002408B5024802F0A2F908BD00BF1E
:101FD000A80A00240120704708B50CF07BFA1623EC
:101FE00003604FF0FF3008BD08B54FF0FF31FFF739
:101FF000F3FFFEE770B50C461646002506E0AFF38A
:102000000080214601F8010B01350C46B542F6DB94
:10201000304670BD70B50C461646002504E014F835
:10202000010BAFF300800135B542F8DB304670BDDF
:102030004FF0FF3070474FF400534B600020704763
:10204000012070470020704710B503460C4A0D4927
:102050000D48006840B10C4800680344521A93428E
:1020600006D8094A136010BD0748084C0460F2E71F
:102070000CF030FA0C2303604FF0FF30F3E700BFA1
:102080000000082400200000A80B00249021002458
:102090002D4B1B6803F00F03062B06D82A4A136842
:1020A00023F00F0343F007031360284B1A6842F034
:1020B00001021A6000221A611968254A0A401A6052
:1020C000214B1B6813F0080F06D01F4A136823F03A
:1020D0000F0343F0070313601C4B00229A61DA617F
:1020E0001A621C4999621C49D9621C4919635A63D6
:1020F0009963DA6319645A64196821F480211960BC
:102100001A66174B1B686FF30F03B3F1005F03D21E
:10211000144B0122C3F808210C4BD3F8D43013F42C
:10212000805F10D1094BD3F8D42042F48052C3F819
:10213000D4200D4A43F2D2011160D3F8D42022F406
:102140008052C3F8D4207047002000520044025847
:102150007FEDF6EA000202020000FF0180020101A9
:102160000010005C0080005100400052054AD36816
:1021700043F00203D360034B5B6813F4005FFAD0B3
:10218000704700BF0048025808B50A480A4B036070
:10219000EF2343600023836040F2E732C2600361B3
:1021A0008023836105F0D0FD00B908BDFFF76FFD06
:1021B000FBE700BFAC0B00240020004002680F4B7F
:1021C0009A4200D0704700B583B00D4BD3F8E82099
:1021D00042F48072C3F8E820D3F8E83003F4807347
:1021E0000193019B002211462D2001F01FF82D20A4
:1021F00001F02CF803B05DF804FB00BF00200040A4
:102200000044025808B51748174B03604FF4E133F8
:10221000436000238360C36003610C2242618361D9
:10222000C36103624362836206F077FD70B90021E7
:102230000C4806F045FE60B900210A4806F065FE2C
:1022400050B9084806F01DFE48B908BDFFF71FFD4C
:10225000EDE7FFF71CFDEFE7FFF719FDF1E7FFF7EB
:1022600016FDF2E7E80C00240010014030B5B9B0CB
:102270000446002133913491359136913791C02233
:1022800002A80CF073F822683B4B9A4201D039B097
:1022900030BD01220023CDE9022302A803F022FC75
:1022A000002860D1354BD3F8F02042F01002C3F87B
:1022B000F020D3F8F02002F010020092009AD3F838
:1022C000E02042F00102C3F8E020D3F8E03003F050
:1022D00001030193019B4FF4C063339302233493B2
:1022E0000025359536950723379333A9244802F006
:1022F000ABFB2448244B0360292343608560C56001
:102300004FF48063036145618561C5614FF400331B
:102310000362456201F00CFA40BB1A4BC4F88030EE
:102320009C631A481A4B03602A234360402383604E
:102330000023C3604FF48062026143618361C36123
:102340004FF400320262436201F0F2F988B90F4B98
:10235000E3679C6300220121252000F067FF252010
:1023600000F074FF93E7FFF792FC9BE7FFF78FFC09
:10237000D3E7FFF78CFCEAE7001001400044025865
:1023800000000258700C002440000240F80B0024AA
:1023900028000240DFF838D0FFF7E8FEFFF778FEAC
:1023A0000C480D490D4A002302E0D458C4500433B0
:1023B000C4188C42F9D30A4A0A4C002301E0136086
:1023C0000432A242FBD30CF08BF8FFF7C5FC704738
:1023D0000000082400000024B009002474790108DA
:1023E000B009002490210024FEE70000104B1B7868
:1023F0000BB90120704710B504464FF47A70B0FB5A
:10240000F3F30C4A1068B0FBF3F000F023FF68B957
:102410000F2C01D901200AE0002221464FF0FF30A5
:1024200000F004FF044B1C60002000E0012010BD00
:1024300008000024040000240C00002410B5032030
:1024400000F0E2FE02F0A4FF0F498B69C3F30323FF
:102450000E4AD35C03F01F03D8408B6903F00F03CF
:10246000D35C03F01F0320FA03F3094A1360094BFE
:1024700018600020FFF7BAFF10B10124204610BDFC
:102480000446FFF74FFDF9E700440258505C01088D
:102490000000002404000024034B1B78034A116849
:1024A0000B441360704700BF080000247C0D00241B
:1024B000014B1868704700BF7C0D002438B50446F6
:1024C000FFF7F6FF0546B4F1FF3F02D0044B1B783F
:1024D0001C44FFF7EDFF401BA042FAD338BD00BFFC
:1024E00008000024014B1868000C70470010005CC5
:1024F00010B430300B0A9B0003F00C03C45801F0F9
:102500001F014FF01F0C0CFA01FC24EA0C0CC2F363
:1025100084628A404CEA0202C25010BC704710B478
:1025200014304B0E9B0003F00403C458C1F3045154
:102530004FF0070C0CFA01FC24EA0C0C8A404CEA20
:102540000202C25010BC7047C1F313033BB9C1F380
:10255000846101228A40C3691343C361704791FAC1
:10256000A1F131B1B1FA81F101F01F0101228A40DC
:10257000F1E72021F8E77047704708B5806BFFF757
:10258000FBFF08BD704708B50346806B426D12F033
:10259000500F30D1436D43F40073436503681A68EC
:1025A00012F0080F14D0DA6812F4406F20D1DB6803
:1025B00013F4005F1CD1436D23F480734365436DB6
:1025C00013F4805F14D1436D43F0010343650FE0C2
:1025D000DB6813F0030F0BD1436D23F48073436565
:1025E000436D13F4805F03D1436D43F001034365F2
:1025F000FFF7C1FF08BD426D12F0100F04D1C26C8D
:10260000D26C18469047F5E7FFF7BCFFF2E708B534
:10261000806B436D43F040034365836D43F00403D7
:102620008365FFF7AFFF08BD70B582B0002301934B
:1026300090F85030012B00F0148204460D4601231F
:1026400080F850300268936813F0040F09D0436D8E
:1026500043F0200343650120002384F8503002B08A
:1026600070BD0B68002B0ADBC3F3130100293AD1BC
:10267000C3F3846301219940D3690B43D3612A6872
:1026800069682068FFF734FF2068866816F0040642
:1026900000D00126836813F0080F00D17EB32068B4
:1026A000816811F0010140F0D8812B68EE68D0F804
:1026B000C020C3F3130C22EA0C0206F0180C954E4E
:1026C00026FA0CF63340C3F313031343C0F8C030AB
:1026D000EA68914B9A4200F0A1802B68002BC0F26F
:1026E00043810020B8E793FAA3F333B1B3FA83F33D
:1026F00003F01F0301219940BEE72023F8E7AA68F1
:102700002968FFF70CFF854B1B6803F07043B3F19A
:10271000805F0BD02268D36813F0100F3BD16B6938
:10272000D268C2F382025200934006E06B692268CD
:10273000D268C2F38202520093402969042938D03A
:102740002268286802F1600C5CF8212002F0004247
:1027500000F0F840034313434CF821302368286904
:102760006A7E012A1FD03246603353F8201021F0D0
:1027700000410A4343F82020206829692B7E012B61
:1027800014D0026922F4F04201F01F0306FA03F3A9
:102790001343036183E76B69D268920802F0040275
:1027A00052009340C9E74FF00042DDE74FF4006666
:1027B000E7E72268136E03F0F8432968B3EB816FF3
:1027C0001DD02268536E03F0F8432968B3EB816F84
:1027D0001AD02268936E03F0F8432968B3EB816F37
:1027E00017D02268D36E03F0F8432968B3EB816FEA
:1027F0007FF455AFD36E23F00043D3664FE7136EDB
:1028000023F000431366DCE7536E23F00043536666
:10281000DFE7936E23F000439366E2E72068404BC6
:10282000984205D03F4B98422BD0FFF78DFE54E7DE
:102830002B683D4A93424AD03C4A934249D03C4A95
:10284000934248D03B4A934247D002F1866210320D
:10285000934244D0384A934243D002F1042202F515
:10286000401293423FD002F1866202F50062934229
:102870003BD0324A93423AD0314A9342D5D1314982
:10288000D3E72B68284A934233D0284A934232D068
:10289000274A934231D0274A934230D002F18662D0
:1028A000103293422DD0244A93422CD002F10422BC
:1028B00002F54012934228D002F1866202F50062CE
:1028C000934224D01E4A9342AFD11E49ADE7012165
:1028D000ABE71D49A9E71D49A7E71D49A5E71D4924
:1028E000A3E71D49A1E71D499FE71D499DE71D4934
:1028F0009BE7012199E7144997E7144995E71449A3
:1029000093E7144991E714498FE714498DE7144977
:102910008BE700BFFFFF0F000000FF470010005CC7
:102920000020024000210240020030040400600840
:102930000800900C1000C0100004002A0000214381
:102940000000844B0000B84F400020198000501D4B
:10295000000180210002B0250008302E00106032F6
:10296000002090360000524722683F493F4882428B
:1029700018BF8A420CBF0121002118D13C4EB56816
:1029800005F0E07CA9B13849886810F0010000D05A
:1029900001203649896811F0010100D0012101436D
:1029A0000CD0636D43F020036365012054E6314E83
:1029B000E5E73149896811F0010FF2D12F498B42C7
:1029C00007D02F498B4226D02E498B4234D000208D
:1029D00042E615F4000FF4D1274B9A4201D00020B3
:1029E0003AE64CF40003B26822F0E0721343B3609D
:1029F000254B1B689B09254AA2FB03239B09013336
:102A00005B00019302E0019B013B0193019B002BC2
:102A1000F9D1002020E615F0807FD5D1164B9A42DF
:102A200001D0002018E64CF08073B26822F0E0720A
:102A30001343B36000200FE615F4800F0FD10E4B47
:102A40009A4201D0002007E64CF48003B26822F0DD
:102A5000E0721343B3600020FEE50020FCE5002097
:102A6000FAE50220FBE500BF002002400021024001
:102A7000002302400063025800600258000084CB2B
:102A8000000052C70000B8CF04000024632D3E05AB
:102A900038B503689A6812F0010F56D10446996858
:102AA0002B4A114209D0436D43F010034365836DF7
:102AB00043F001038365012048E09968254A0A40F4
:102AC00042F001029A60FFF7F3FC054623682249B1
:102AD000224A934218BF8B420DD102F500729268D0
:102AE00002F01F021D498B4207D01946994207D0B8
:102AF00032B100202AE01A4AF1E7A1F58071F5E72A
:102B000023681A6812F0010F1DD19A6812F0010FA4
:102B100005D199680F4A0A4042F001029A60FFF716
:102B2000C7FC401B0228EBD923681B6813F0010F78
:102B3000E6D1636D43F010036365A36D43F00103B9
:102B4000A365012002E0002000E0002038BD00BFA6
:102B50003F000080C0FFFF7F0020024000210240B4
:102B600000630258F8B504460E46174600683E4A10
:102B70003E4B984218BF90421CD103F500739D68EC
:102B800005F01F05806810F0040F69D194F85030EB
:102B9000012B67D0012384F85030092D05D840F26D
:102BA0002123EB4013F0010F06D1002384F85030AD
:102BB000012056E02E4BE2E72046FFF769FF002890
:102BC0004AD1626DA0F60273134043F480736365CB
:102BD0002368264A934239D01A46934200D01DB941
:102BE000636D23F480136365636D13F4805F30D0ED
:102BF000A36D23F00603A365E36C1E4ADA63E36C5E
:102C00001D4A1A64E36C1D4ADA6423681C221A60A8
:102C1000002384F850302268536843F01003536057
:102C20002168E36ACA6822F003021343CB6021687B
:102C30003B4632464031E06C00F04CFF2268916820
:102C40000F4B0B4043F0040393600AE0A2F580723F
:102C5000C3E70023A365CFE7002384F8503000E0EA
:102C60000220F8BD0220FCE70020024000210240C3
:102C700000630258872500087B2500080F260008FE
:102C8000C0FFFF7F38B5044603684E494E4A934261
:102C900018BF8B4226D14D4B9B6803F44033003B59
:102CA00018BF012343B302F0CFFD05466368B3F5B7
:102CB000003F05D0B3F5403F1CD0B3F5803F02D1B3
:102CC0001B0CB5FBF3F5FFF70DFC41F20303984233
:102CD00053D83F4B9D424AD92268936843F480738E
:102CE000936038BD3B4B9B6803F44033003B18BFF7
:102CF0000123D7E78508E6E74FF40020002103F021
:102D0000B3FF05466368B3F5101F2CD021D8B3F587
:102D1000E01F26D004D9B3F5001FD4D14509D2E76E
:102D2000B3F5801F10D009D8B3F5002F0CD0B3F540
:102D3000402F09D0B3F5802F06D0C4E7B3F5A01F0C
:102D400002D0B3F5C01FBED19B0C5B00B5FBF3F501
:102D5000B9E7B3F5201F08D0B3F5301FB3D1050A8A
:102D6000B1E70509AFE78509ADE7C509ABE722681B
:102D7000936823F480739360B3E7174B9D4205D8A3
:102D80002268936823F440739360AAE7134B9D4233
:102D900007D82268936823F4407343F480739360E8
:102DA0009FE70F4B9D4207D82268936823F4407336
:102DB00043F40073936094E72268936843F440738C
:102DC00093608EE700200240002102400023024071
:102DD000002D31010063025821BCBE0041787D0105
:102DE00081F0FA0230B583B000230193002800F08F
:102DF00008810446436DEBB123689A6812F0005FC6
:102E000003D09968804A0A409A6023689A6812F051
:102E1000805F1CD199687D4A0A4042F080529A60D6
:102E20007B4B1B689B097B4AA2FB03239B09013355
:102E3000019309E0FEF7DEFD0023A36584F850301E
:102E4000DAE7019B013B0193019B002BF9D122683A
:102E5000936813F0805F40F09780636D43F0100338
:102E60006365A36D43F00103A3650125936813F027
:102E7000040300D00123616D11F0100F40F0B98000
:102E8000002B40F0B680636D23F4817343F002039E
:102E90006365936813F0010F1ED15F495F4B9A423F
:102EA00018BF8A420CBF012200226FD1896811F03D
:102EB000010100D00121594B9B6813F0010300D0A0
:102EC00001230B4308D1002A66D0554963688A68FC
:102ED00022F47C1213438B60FFF704FB41F20303DF
:102EE000984202D9A368102B58D0627D236B43EA25
:102EF0004233A2681343227F43EA0243227F012A1E
:102F000057D0626A22B102F47872A16A0A4313436D
:102F10002168C868434A02401A43CA60226893681D
:102F200013F0040300D00123916811F0080F1CD1A5
:102F3000DBB9217DE36A43EA8131D0683A4B034033
:102F40000B43D36094F83830012B37D022681369D3
:102F500023F0010313612268136923F07043616B4E
:102F60000B4313612046FFF78DFEE368012B37D03A
:102F70002268136B23F00F031363636D23F00303C5
:102F800043F00103636539E000256FE7274B9B6839
:102F900013F0010FA0D196E7254997E7617D226BD9
:102FA00042EA41321343227F43EA024343F00C03D7
:102FB000A4E7226A013A43EA4243A2E72068026991
:102FC0001C4B1340E26B511E226C42EA0142616CC1
:102FD0000A43A16C0A43134343F001030361BAE7B8
:102FE00021680B6B23F00F03A269013A13430B63B3
:102FF000C3E7636D43F0100363650125284603B002
:1030000030BD0125FAE700BFC0FFFF5FC0FFFF6FC3
:1030100004000024632D3E050020024000210240F0
:103020000023024003C0F0FFFCBFFFFF0060025816
:10303000006302581EF800FC90F85020012A00F0AE
:10304000968030B49AB00346012280F850200022C6
:10305000169217920068474A904236D00022019299
:10306000019A002A35D0926812F0040200D00122A1
:10307000846814F0040F6BD1002A69D13D4C3E4A9C
:10308000904218BFA0422DD102F5007208680028B6
:1030900039D0906820F440404C6820439060186814
:1030A000344D354CA04218BFA8421DD1AC6814F075
:1030B000010400D001243048806810F0010000D0E5
:1030C0000120204315D0002047E002F580720192D4
:1030D000C6E75A6D42F020025A65002283F850205C
:1030E00001203DE0254AD1E72548806810F0010F16
:1030F00039D19468234820400C68896821430843EB
:103100009060002029E0916821F4404191601968A5
:10311000184C1948814218BFA1420ED1A06810F086
:10312000010000D001201449896811F0010100D08C
:103130000121014306D000200FE01149896811F0F8
:10314000010F12D190680F4901409160002004E006
:103150005A6D42F020025A650120002283F8502067
:103160001AB030BC70470020F7E70020F5E70220D6
:10317000704700BF00200240002102400063025857
:1031800000600258E0F0FFFF002807DB00F01F029C
:10319000400901239340024A42F82030704700BFA3
:1031A00000E100E0002804DB0901C9B2044B195416
:1031B000704700F00F000901C9B2024B1954704763
:1031C00000E400E014ED00E000B500F00700C0F1FD
:1031D000070CBCF1040F28BF4FF0040C031D062B95
:1031E0000FD9C31E4FF0FF3E0EFA0CF021EA00018A
:1031F00099400EFA03FE22EA0E0241EA02005DF84F
:1032000004FB0023EEE700000649CB6823F4E063EB
:103210001B041B0C000200F4E0600343024A1A4343
:10322000CA60704700ED00E00000FA0510B50446E2
:10323000054BD868C0F30220FFF7C6FF01462046C1
:10324000FFF7B0FF10BD00BF00ED00E008B5FFF7CD
:103250009BFF08BD0138B0F1807F0BD24FF0E02317
:103260005861054AF02182F8231000209861072256
:103270001A6170470120704700ED00E0BFF35F8FD7
:10328000044B5A6A22F480325A620022C3F8942016
:10329000704700BF00ED00E040F00100054BC3F8AF
:1032A00094005A6A42F480325A62BFF34F8FBFF3E0
:1032B0006F8F704700ED00E04378144AC2F89830F1
:1032C000D2F8A03023F00103C2F8A0304368C2F85E
:1032D0009C30017BC37A1B0643EA0173817A43EA7F
:1032E000C143417B43EA8143817B43EA4143C17B44
:1032F00043EA0143417A43EA0123017A43EA410365
:1033000001780B43C2F8A030704700BF00ED00E029
:10331000F0B4876D0468664E664DAC4218BFB44287
:1033200042D01835AC423FD01835AC423CD01835AD
:10333000AC4239D01835AC4236D01835AC4233D017
:103340001835AC4230D005F55675AC422CD0183546
:10335000AC4229D01835AC4226D01835AC4223D027
:103360001835AC4220D01835AC421DD01835AC42CF
:103370001AD01835AC4217D04F4DAC4214D014358A
:10338000AC4211D01435AC420ED01435AC420BD047
:103390001435AC4208D01435AC4205D01435AC42DB
:1033A00002D01435AC4207D1446E856E6560C46EA0
:1033B00014B1046F456F656004683D4E3D4DAC42ED
:1033C00018BFB44252D01835AC424FD01835AC4279
:1033D0004CD01835AC4249D01835AC4246D01835DF
:1033E000AC4243D01835AC4240D005F55675AC42DE
:1033F0003CD01835AC4239D01835AC4236D01835EF
:10340000AC4233D01835AC4230D01835AC422DD058
:103410001835AC422AD01835AC4227D0264E274D5D
:10342000AC4218BFB44211D0254DAC420ED0143579
:10343000AC420BD01435AC4208D01435AC4205D0A8
:103440001435AC4202D01435AC4224D1C46D04F022
:103450001F050124AC407C60046863608368402BD6
:1034600020D0036899600368DA6014E0C46D04F04A
:103470001F0C3F2404FA0CF4BC6005682C6824F48B
:1034800080242C60046863608368402B05D0036847
:1034900099600368DA60F0BC704703689A6003685B
:1034A000D960F8E703689A600368D960F3E700BF62
:1034B0001000024028000240085402581C540258D0
:1034C0003054025803682749274A934218BF8B4259
:1034D0002FD0183293422CD01832934229D0183270
:1034E000934226D01832934223D01832934220D0F0
:1034F000183293421DD002F55672934219D01832F9
:10350000934216D01832934213D01832934210D0FF
:10351000183293420DD0183293420AD01832934297
:1035200007D01832934204D023F0FF038365806DE7
:10353000704710B4D9B210390C4AA2FB0142C2F351
:1035400002120B4CA25CC2655F2906D96FF3090316
:1035500004338365806D10BC70476FF30903836586
:10356000F8E700BF1000024028000240ABAAAAAA58
:10357000605C010883699BB9836A012B0AD0022B26
:1035800002D00BB100207047C36A13F0807F2AD1AC
:1035900000207047C36AB3F1C07F26D00020704777
:1035A000B3F5005F0AD0836A022B26D9032B26D1FC
:1035B000C36A13F0807F24D100207047836A032BF5
:1035C00003D8DFE803F01404140A00207047C36A2C
:1035D00013F0807F0DD100207047C36AB3F1C07F24
:1035E00009D000207047012070470120704701205A
:1035F000704701207047012070470120704700206C
:10360000704701207047000003682149214A934216
:1036100018BF8B4227D01432934224D014329342E5
:1036200021D0143293421ED0143293421BD0143254
:10363000934218D01432934215D0DAB2103A164998
:10364000A1FB0212120915491944A8291ED9144BCD
:1036500013449B000366134B436602F01F020123D1
:10366000934083667047DBB2083B0F4AA2FB0323FB
:103670000E4A02EB1312920002660D4A4266C3F331
:103680000413012202FA03F3836670470832DEE76F
:10369000085402581C540258ABAAAAAAF0FBFDBF5A
:1036A0000082001080080240CDCCCCCC00960016E1
:1036B0008058025801794A1E072A2BD830B4036873
:1036C000154D164CA34218BFAB4218D01434A34278
:1036D00015D01434A34212D01434A3420FD01434A2
:1036E000A3420CD01434A34209D01434A34206D010
:1036F0000B4B0B449B00C3660A4B036705E00A4B68
:103700000B449B00C366094B036701239340436747
:1037100030BC7047704700BF085402581C54025810
:103720003F820010400902403F960016405902585F
:1037300070B50446FEF7BCFE002C00F0B9810546CA
:1037400023685349534A934218BF8B420CBF01214F
:10375000002150D0183293424DD0183293424AD0B3
:103760001832934247D01832934244D018329342D1
:1037700041D0183293423ED002F5567293423AD06D
:103780001832934237D01832934234D018329342D1
:1037900031D0183293422ED0183293422BD01832A7
:1037A000934228D01832934225D03B493B4A93425A
:1037B00018BF8B4200F03481394A934200F03081C7
:1037C0001432934200F02C811432934200F028818D
:1037D0001432934200F024811432934200F020818D
:1037E0001432934200F01C8140236365032384F864
:1037F000353001204AE0022284F83520002284F886
:10380000342079BB274A93422CD01832934229D0D6
:103810001832934226D01832934223D01832934262
:1038200020D0183293421DD002F55672934219D01F
:103830001832934216D01832934213D01832934262
:1038400010D0183293420DD0183293420AD0183259
:10385000934207D01832934204D01A6822F0010232
:103860001A6003E01A6822F001021A6023681A68DD
:1038700012F0010F18D0FEF71BFE431B052BF5D9E4
:1038800020236365032384F83530012070BD00BF19
:103890001000024028000240085402581C540258EC
:1038A00030540258400002401A6882491140A26810
:1038B000E06802432069024360690243A069024351
:1038C000E0690243206A02430A43616A042900F066
:1038D0009880794909686FF30F01B1F1005F10D347
:1038E00061682E2940F2928052290AD83F2908D3D4
:1038F0003F39724820FA01F111F0010F01D042F472
:1039000080121A602668756925F00705636A1D43F1
:10391000042B08D1A36A1D43E36A23B12046FFF7B5
:1039200029FE002876D175612046FFF7CBFDE36DB7
:1039300003F01F023F239340836023686049614A7C
:10394000934218BF8B4242D0183293423FD0183274
:1039500093423CD01832934239D01832934236D039
:103960001832934233D01832934230D002F5567257
:1039700093422CD01832934229D01832934226D049
:103980001832934223D01832934220D018329342F7
:103990001DD0183293421AD01832934217D04A4A97
:1039A000934214D01432934211D0143293420ED069
:1039B000143293420BD01432934208D01432934203
:1039C00005D01432934202D01432934213D12046D0
:1039D000FFF71AFEA368802B5DD0236E22791A6050
:1039E000636EA26E5A606368013B072B56D90023B1
:1039F000E3662367636700206065012384F8353040
:103A000044E7E16A206B01430A4362E72929FFF496
:103A100078AF74E740236365012084F8350035E70B
:103A2000022284F83520002284F8342019686FF3CC
:103A30001011A268402A2CD0802A27D00022E068EA
:103A400042EAD002206942EAD002606942EAD0022A
:103A5000A06942EAD002E06942EAD002206A42EA62
:103A600010120A431A602268184B1344184AA2FB2A
:103A700003231B099B00E3652046FFF723FDE26D4E
:103A800002F01F0101228A40426056E74FF4804253
:103A9000D5E71022D3E7002363609EE72046FFF7B7
:103AA00009FEE36E00221A60236F626F5A60A2E77C
:103AB0000120EBE63F8010FE0010005C0F030F00BA
:103AC000100002402800024008540258F8ABFDA73D
:103AD000CDCCCCCC002800F03D8170B5044690F8E8
:103AE0003400012800F03881012084F8340094F873
:103AF0003500012807D04FF400636365002384F884
:103B00003430012070BD022084F83500002060654B
:103B10002068924E924DA84218BFB0422FD018355F
:103B2000A8422CD01835A84229D01835A84226D052
:103B30001835A84223D01835A84220D01835A842FD
:103B40001DD005F55675A84219D01835A84216D0D3
:103B50001835A84213D01835A84210D01835A842FD
:103B60000DD01835A8420AD01835A84207D018350C
:103B7000A84204D0056825F00105056003E005684A
:103B800025F0010505602046FFF7C2FB2368734955
:103B9000734A934218BF8B4238D01832934235D0C3
:103BA0001832934232D0183293422FD018329342B7
:103BB0002CD01832934229D01832934226D002F5E5
:103BC0005672934222D0183293421FD01832934239
:103BD0001CD01832934219D01832934216D01832A2
:103BE000934213D01832934210D0183293420DD022
:103BF0001A6822F00E0242F00A021A60236C93B196
:103C00002268136843F0040313600CE01A6822F082
:103C10001E0242F016021A60236C23B12268136858
:103C200043F00803136023684C494D4A934218BF80
:103C30008B4242D0183293423FD0183293423CD04C
:103C40001832934239D01832934236D01832934208
:103C500033D01832934230D002F5567293422CD0B2
:103C60001832934229D01832934226D01832934208
:103C700023D01832934220D0183293421DD01832EC
:103C800093421AD01832934217D0364A934214D036
:103C90001432934211D0143293420ED01432934214
:103CA0000BD01432934208D01432934205D0143210
:103CB000934202D0143293420ED1236E1A6812F44A
:103CC000803F03D01A6842F480721A60E36E1BB121
:103CD0001A6842F480721A6023682049204A93428D
:103CE00018BF8B4230D0183293422DD018329342F5
:103CF0002AD01832934227D01832934224D0183257
:103D0000934221D0183293421ED002F5567293424C
:103D10001AD01832934217D01832934214D0183266
:103D2000934211D0183293420ED0183293420BD0E6
:103D30001832934208D01832934205D01A6842F0E4
:103D400001021A600020DDE61A6842F001021A60E2
:103D50000020D7E6012070470220D3E61000024081
:103D6000280002400854025870B50446FEF7A0FB34
:103D7000002C00F08F81054694F83530022B06D0D8
:103D800080236365002384F83430012070BD2368EC
:103D90008B498C4A934218BF8B4230D018329342E1
:103DA0002DD0183293422AD01832934227D018329D
:103DB000934224D01832934221D0183293421ED01D
:103DC00002F5567293421AD01832934217D0183225
:103DD000934214D01832934211D0183293420ED02D
:103DE000183293420BD01832934208D018329342C3
:103DF00005D01A6822F00E021A60266809E01A68D7
:103E000022F01E021A602268536923F08003536176
:103E1000266823686A496B4A934218BF8B4242D096
:103E2000183293423FD0183293423CD0183293421A
:103E300039D01832934236D01832934233D01832E8
:103E4000934230D002F5567293422CD018329342EE
:103E500029D01832934226D01832934223D01832F8
:103E6000934220D0183293421DD0183293421AD078
:103E70001832934217D0544A934214D014329342CA
:103E800011D0143293420ED0143293420BD014321C
:103E9000934208D01432934205D01432934202D098
:103EA0001432934204D1226E136823F4807313609A
:103EB00023684349434A934218BF8B422FD018329C
:103EC00093422CD01832934229D01832934226D0F4
:103ED0001832934223D01832934220D018329342A2
:103EE0001DD002F55672934219D01832934216D063
:103EF0001832934213D01832934210D018329342A2
:103F00000DD0183293420AD01832934207D018329B
:103F1000934204D01A6822F001021A6003E01A6882
:103F200022F001021A60336813F0010F0ED0FEF781
:103F3000BFFA431B052BF6D920236365032384F8BE
:103F40003530002384F8343001201FE723681C49F2
:103F50001C4A934218BF8B4238D01832934235D056
:103F60001832934232D0183293422FD018329342F3
:103F70002CD01832934229D01832934226D002F521
:103F80005672934222D0183293421FD01832934275
:103F90001CD01832934219D01832934216D01832DE
:103FA000934213D01832934210D0183293420DD05E
:103FB000A16DE36D03F01F02012393404B600CE001
:103FC000100002402800024008540258A16DE36D21
:103FD00003F01F023F2393408B6023682E492F4A32
:103FE000934218BF8B4242D0183293423FD01832CE
:103FF00093423CD01832934239D01832934236D093
:104000001832934233D01832934230D002F55672B0
:1040100093422CD01832934229D01832934226D0A2
:104020001832934223D01832934220D01832934250
:104030001DD0183293421AD01832934217D0184A22
:10404000934214D01432934211D0143293420ED0C2
:10405000143293420BD01432934208D0143293425C
:1040600005D01432934202D0143293420BD1636EC6
:10407000A26E5A60E36E33B11A6822F480721A603D
:10408000236F626F5A60012384F83530002084F872
:1040900034007BE6012079E610000240280002404F
:1040A00008540258002800F0278108B5024690F80D
:1040B0003530022B03D080234365012008BD0368FF
:1040C0008F4890498B4218BF83420CBF01200020CB
:1040D00065D018318B4262D018318B425FD01831D5
:1040E0008B425CD018318B4259D018318B4256D05C
:1040F00018318B4253D001F556718B424FD0183195
:104100008B424CD018318B4249D018318B4246D06B
:1041100018318B4243D018318B4240D018318B423A
:104120003DD018318B423AD0196821F00E01196048
:104130001368734873498B4218BF83426AD072492F
:104140008B4267D018318B4264D018318B4261D0DA
:1041500018318B425ED018318B425BD018318B42C4
:1041600058D001F556718B4254D018318B4251D042
:1041700018318B424ED018318B424BD018318B42C4
:1041800048D018318B4245D018318B4242D018317B
:104190008B423FD0196821F0010119603EE00421F3
:1041A00082F8351080BB584A93422DD01832934282
:1041B0002AD01832934227D01832934224D0183292
:1041C000934221D0183293421ED002F55672934288
:1041D0001AD01832934217D01832934214D01832A2
:1041E000934211D0183293420ED0183293420BD022
:1041F0001832934208D01832934205D01A6822F040
:1042000001021A60002059E71A6822F001021A60C0
:10421000002053E7196821F001011960136838483C
:1042200038498B4218BF834242D018318B423FD06D
:1042300018318B423CD018318B4239D018318B4227
:1042400036D018318B4233D018318B4230D001F543
:1042500056718B422CD018318B4229D018318B42A9
:1042600026D018318B4223D018318B4220D0183100
:104270008B421DD018318B421AD018318B4217D087
:1042800022498B4214D014318B4211D014318B420D
:104290000ED014318B420BD014318B4208D0143124
:1042A0008B4205D014318B4202D014318B4217D18E
:1042B000116E0B6823F480730B60906DD36D03F067
:1042C0001F0101238B404360536E916E5960D36E82
:1042D00033B1196821F480711960136F516F5960FF
:1042E000012382F83530002382F83430136D2BB16E
:1042F000104698470020E1E6012070470020DDE6E7
:1043000010000240280002404000024008540258B9
:10431000F0B583B00446002301937D4B1D687D4BAF
:10432000A3FB0535AD0A876D3E68D7F800C003686A
:1043300079497A48834218BF8B420CBF0120002084
:1043400061D0774A93425ED0183293425BD01832E4
:10435000934258D01832934255D01832934252D0DB
:10436000183293424FD002F5567293424BD0183216
:10437000934248D01832934245D01832934242D0EB
:10438000183293423FD0183293423CD018329342B5
:1043900039D01832934236D06249634A934218BFEB
:1043A0008B4212D0614A93420FD0143293420CD008
:1043B0001432934209D01432934206D014329342FD
:1043C00003D01432934240F05F821A68E16D01F02D
:1043D0001F010420884010EA0C0F00F0A58212F0A3
:1043E000040F00F0A182786012F4004F00F05882B0
:1043F00012F4803F40F04E82A36C002B00F0448208
:104400002046984740E2E26D02F01F0108228A40F0
:10441000324241D070BB424A93422BD01832934271
:1044200028D01832934225D01832934222D0183225
:1044300093421FD0183293421CD002F55672934219
:1044400018D01832934215D01832934212D0183235
:1044500093420FD0183293420CD01832934209D0B5
:104460001832934206D01832934203D01A68C2F32E
:10447000C00202E01A68C2F380026AB11A6822F030
:1044800004021A60E36D03F01F0208239340BB602F
:10449000636D43F001036365E26D02F01F0226FACB
:1044A00002F313F0010F47D023681B481B498B42CE
:1044B00018BF83423CD018318B4239D018318B421F
:1044C00036D018318B4233D018318B4230D018316E
:1044D0008B422DD018318B422AD001F556718B4278
:1044E00026D018318B4223D018318B4220D018317E
:1044F0008B421DD018318B421AD018318B4217D005
:1045000018318B4214D018318B4211D01B6813E044
:1045100004000024B5814E1B100002402800024018
:1045200040000240085402581C54025830540258AB
:104530005B6913F0800F3BD1E36D03F01F0304228E
:1045400002FA03F333423FD02268954895498A42E4
:1045500018BF824234D018318A4231D018318A4291
:104560002ED018318A422BD018318A4228D01831E7
:104570008A4225D018318A4222D001F556718A42EA
:104580001ED018318A421BD018318A4218D01831F7
:104590008A4215D018318A4212D018318A420FD07F
:1045A00018318A420CD018318A4209D013680BE0C6
:1045B00001239340BB60636D43F002036365BBE777
:1045C000126812F0020F3DD1E36D03F01F031022B9
:1045D00002FA03F333425FD02268714871498A427C
:1045E00018BF824234D018318A4231D018318A4201
:1045F0002ED018318A422BD018318A4228D0183157
:104600008A4225D018318A4222D001F556718A4259
:104610001ED018318A421BD018318A4218D0183166
:104620008A4215D018318A4212D018318A420FD0EE
:1046300018318A420CD018318A4209D01268C2F36C
:10464000800208E0BB60636D43F004036365BBE771
:104650001268C2F3C002FAB1BB6023681A6812F490
:10466000802F0DD01B6813F4002F04D1236C9BB155
:104670002046984710E0A36C73B1204698470BE0A2
:104680001A6812F4807F03D11A6822F008021A60B7
:10469000236C0BB120469847E36D03F01F032022E3
:1046A00002FA03F3334200F0918022683C483D490E
:1046B0008A4218BF82422ED018318A422BD018313C
:1046C0008A4228D018318A4225D018318A4222D015
:1046D00018318A421FD018318A421CD001F5567118
:1046E0008A4218D018318A4215D018318A4212D025
:1046F00018318A420FD018318A420CD018318A42C0
:1047000009D018318A4206D018318A4203D0126883
:10471000C2F3400202E01268C2F30012002A55D030
:10472000BB6094F83530042B0ED023681A6812F45D
:10473000802F39D01B6813F4002F2CD1636C002B11
:1047400044D02046984741E02268136823F01603BE
:1047500013602268536923F080035361236CB3B163
:104760002268136823F008031360E36D03F01F024F
:104770003F239340BB60012384F83530002384F845
:104780003430236D002B7FD0204698477CE0A36C0B
:10479000002BE5D1E9E7E36BC3B12046984715E06C
:1047A00010000240280002401A6812F4807F09D1EC
:1047B0001A6822F010021A60012384F835300023B1
:1047C00084F83430E36B0BB120469847636D002BBF
:1047D0005AD0636D13F0010F52D0042384F83530A2
:1047E00023689649964A934218BF8B422FD01832BD
:1047F00093422CD01832934229D01832934226D0BB
:104800001832934223D01832934220D01832934268
:104810001DD002F55672934219D01832934216D029
:104820001832934213D01832934210D01832934268
:104830000DD0183293420AD01832934207D0183262
:10484000934204D01A6822F001021A6003E01A6849
:1048500022F001021A60019B01330193AB4204D89C
:1048600023681B6813F0010FF5D123681B6813F050
:10487000010F0BD0032384F83530002384F8343043
:10488000E36C0BB12046984703B0F0BD012384F8D8
:104890003530F2E7236C002BF6D020469847F3E73B
:1048A00012F0200F3AD123686449654A934218BF39
:1048B0008B422FD0183293422CD01832934229D0F9
:1048C0001832934226D01832934223D018329342A2
:1048D00020D0183293421DD002F55672934219D05F
:1048E0001832934216D01832934213D018329342A2
:1048F00010D0183293420DD0183293420AD0183299
:10490000934207D01832934204D01A6822F004026E
:104910001A6003E01A6822F008021A60236C002B68
:10492000B2D020469847AFE70220884010EA0C0F2B
:1049300060D012F0020F5DD0786012F4004F0ED0FC
:1049400012F4803F05D1636C002B9DD02046984720
:104950009AE7E36B002B97D02046984794E712F034
:10496000200F40D123683549354A934218BF8B4206
:104970002FD0183293422CD01832934229D01832BB
:10498000934226D01832934223D01832934220D03B
:10499000183293421DD002F55672934219D0183244
:1049A000934216D01832934213D01832934210D04B
:1049B000183293420DD0183293420AD018329342E3
:1049C00007D01832934204D01A6822F00A021A6003
:1049D00003E01A6822F014021A60012384F83530CB
:1049E000002384F83430E36B002B3FF44DAF2046B6
:1049F000984749E7082000FA01F111EA0C0F3FF44B
:104A000043AF12F0080F3FF43FAF1A6822F00E02D6
:104A10001A60E36D03F01F03012202FA03F37B60C7
:104A2000626584F83520002384F83430E36C002B71
:104A30003FF42AAF2046984726E700BF1000024007
:104A400028000240406D704770B582B000236EE0D0
:104A500085685E000324B44025EA0405CC68B440B0
:104A60002C438460456825EA0C054C68C4F30014A7
:104A70009C402C4344606DE0DD08083550F825402B
:104A800003F0070C4FEA8C0C4FF00F0E0EFA0CFEE1
:104A900024EA0E0E0C6904FA0CF444EA0E0440F801
:104AA00025406FE0092400E0002404FA0EF42C43B2
:104AB0000CF1020C6B4D45F82C404FF0B0442568CA
:104AC000D44325EA0206D1F804C01CF4801F01D0AB
:104AD00042EA05064FF0B0452E606D6804EA05060F
:104AE000D1F804C01CF4001F01D042EA05064FF0C3
:104AF000B0456E60D5F8845004EA0506D1F804C0CC
:104B00001CF4003F01D042EA05064FF0B045C5F85D
:104B10008460D5F880502C404E6816F4803F01D058
:104B200042EA05044FF0B042C2F8804001330A68FF
:104B300032FA03F400F093804FF0010C0CFA03FCFE
:104B40001CEA0202F2D04C6804F00304013C012C80
:104B50007FF67EAF4C6804F00304032C0CD0C468CD
:104B60005D004FF0030C0CFA05FC24EA0C0C8C6879
:104B7000AC4044EA0C04C4604C6804F00304022C0A
:104B80003FF47AAF04684FEA430E4FF0030C0CFA7F
:104B90000EFC24EA0C0C4C6804F0030404FA0EF436
:104BA00044EA0C0404604C6814F4403FBED02E4C20
:104BB000D4F8F45045F00205C4F8F450D4F8F440A9
:104BC00004F002040194019C4FEA930C0CF10205DD
:104BD000244C54F8255003F0030E4FEA8E0E0F2498
:104BE00004FA0EF425EA0405204CA0423FF45CAF21
:104BF00004F58064A04222D004F58064A04220D055
:104C000004F58064A0421ED004F58064A0421CD04C
:104C100004F58064A0421AD004F58064A04218D044
:104C200004F58064A04216D004F58064A04214D03C
:104C300004F58064A0423FF435AF0A2435E701242F
:104C400033E7022431E703242FE704242DE705246A
:104C50002BE7062429E7072427E7082425E702B0E5
:104C600070BD00BF00040058004402580000025804
:104C70000369194201D001207047002070470AB132
:104C8000816170470904816170470000134BDB6844
:104C900013F0040F07D1114BDB6803F007038342C5
:104CA0001AD00120704710B50C4AD36823F00703CF
:104CB0000343D360FDF7FCFB0446084B5B6813F429
:104CC000005F07D1FDF7F4FB001BB0F57A7FF4D944
:104CD000012000E0002010BD00207047004802586D
:104CE000002800F0398338B50446036813F0010F3B
:104CF00025D0944A136903F03803926A102B15D01B
:104D0000182B0FD06368B3F5803F3FD0002B53D1F1
:104D10008C4B1A6822F480321A601A6822F48022BE
:104D20001A6038E002F00302022AEBD1854B1B68BF
:104D300013F4003F03D06368002B00F00F83236857
:104D400013F0020F00F0A1807E4A1369926A13F0FB
:104D500038035AD0182B55D0E368002B00F0DE80C2
:104D600078490A6822F0190213430B60FDF7A0FB93
:104D70000546744B1B6813F0040F40F0AD80FDF73F
:104D800097FB401B0228F4D90320EEE26D4A13681A
:104D900043F48033136063682BB3FDF789FB05464A
:104DA000684B1B6813F4003FC9D1FDF781FB401B22
:104DB0006428F5D90320D8E2B3F5A02F09D0614BC0
:104DC0001A6822F480321A601A6822F480221A606B
:104DD000E1E75C4B1A6842F480221A601A6842F4D8
:104DE00080321A60D7E7FDF763FB0546554B1B6819
:104DF00013F4003FA3D0FDF75BFB401B6428F5D9FB
:104E00000320B2E212F0030FA6D14E4B1B6813F041
:104E1000040F03D0E368002B00F0A282494A136814
:104E200023F01903E1680B431360FDF741FB0546CE
:104E3000444B1B6813F0040F06D1FDF739FB401BF0
:104E40000228F5D9032090E2FDF74CFB41F2030361
:104E5000984212D82269402A07D03A494B6823F475
:104E60007C3343EA02334B600FE0364A536823F445
:104E70007C3343F40033536007E0324A536823F035
:104E8000FE43216943EA01635360236813F0100F66
:104E900000F088802B4A136903F03803926A082BCC
:104EA00056D0182B50D0E369002B00F0B880254A6B
:104EB000136843F080031360FDF7FAFA0546214BAF
:104EC0001B6813F4807F40F08880FDF7F1FA401BE7
:104ED0000228F4D9032048E2FDF704FB41F2030362
:104EE000984212D82269402A07D016494B6823F409
:104EF0007C3343EA02334B60C7E7124A536823F41A
:104F00007C3343F400335360BFE70E4A536823F009
:104F1000FE43216943EA01635360B6E7094A136817
:104F200023F001031360FDF7C3FA0546054B1B6828
:104F300013F0040FA9D0FDF7BBFA401B0228F5D9E6
:104F4000032012E20044025802F00302012AAAD10F
:104F5000A14B1B6813F4807F03D0E369802B40F0E2
:104F60000182FDF7BFFA41F20303984212D8226A88
:104F7000202A07D098494B6823F0F84343EA82631C
:104F80004B600FE0944A536823F0F84343F08043AA
:104F9000536007E0904AD36823F07C53216A43EAC8
:104FA0000163D360236813F0080F60D06369002B9E
:104FB00049D0894A536F43F001035367FDF778FAEC
:104FC0000546854B5B6F13F0020F50D1FDF770FA69
:104FD000401B0228F5D90320C7E1FDF783FA41F20F
:104FE0000303984212D8226A202A07D07A494B68D4
:104FF00023F0F84343EA82634B60D3E7764A536871
:1050000023F0F84343F080435360CBE7724AD36800
:1050100023F07C53216A43EA0163D360C2E76E4AFE
:10502000136823F080031360FDF742FA05466A4BCC
:105030001B6813F4807FB5D0FDF73AFA401B0228B5
:10504000F5D9032091E1644A536F23F001035367BC
:10505000FDF72EFA0546604B5B6F13F0020F06D08A
:10506000FDF726FA401B0228F5D903207DE12368CD
:1050700013F0200F29D0A3699BB1574A136843F45A
:1050800080531360FDF714FA0546534B1B6813F465
:10509000005F1AD1FDF70CFA401B0228F5D9032056
:1050A00063E14D4A136823F480531360FDF700FA5F
:1050B0000546494B1B6813F4005F06D0FDF7F8F96D
:1050C000401B0228F5D903204FE1236813F0040F99
:1050D00021D1636A002B00F047813F4A126902F038
:1050E0003802182A00F0EE80022B79D03A4A136871
:1050F00023F080731360FDF7DBF90446364B1B6821
:1051000013F0007F00F0DC80FDF7D2F9001B0228CD
:10511000F4D9032029E1314A136843F48073136002
:10512000FDF7C6F905462D4B1B6813F4807F06D1A9
:10513000FDF7BEF9401B6428F5D9032015E1A368EB
:10514000012B0AD00BBB244B1A6F22F001021A6705
:105150001A6F22F004021A6704E01F4A136F43F02B
:1051600001031367A36833B3FDF7A2F905461A4B91
:105170001B6F13F0020FACD1FDF79AF9401B41F2FF
:1051800088339842F3D90320EFE0052B09D0124B66
:105190001A6F22F001021A671A6F22F004021A67CE
:1051A000E0E70D4B1A6F42F004021A671A6F42F0E3
:1051B00001021A67D6E7FDF77BF90546064B1B6F20
:1051C00013F0020F85D0FDF773F9401B41F28833CD
:1051D0009842F3D90320C8E000440258004802581E
:1051E000694A136823F080731360FDF761F905467F
:1051F000654B1B6813F0007F06D0FDF759F9401B83
:105200000228F5D90320B0E05F4B996A5F4A0A4053
:10521000A16AE06A41EA00110A439A62226B013AEC
:10522000C2F30802616B0139490289B20A43A16BDA
:105230000139090401F4FE010A43E16B0139090651
:1052400001F0FE410A431A63DA6A22F00102DA62CF
:105250005A6B6FF3CF02A16C42EAC1025A63DA6A59
:1052600022F00C02216C0A43DA62DA6A22F00202AE
:10527000616C0A43DA62DA6A42F48032DA62DA6A2C
:1052800042F40032DA62DA6A42F48022DA62DA6ADE
:1052900042F00102DA621A6842F080721A60FDF789
:1052A00007F90446384B1B6813F0007F06D1FDF761
:1052B000FFF8001B0228F5D9032056E0002054E037
:1052C000002052E0304A916A106B012B4ED001F061
:1052D0000303A26A93424BD1C1F30511E36A9942D9
:1052E00048D1C0F30802236B013B9A4244D1C0F37A
:1052F0004622636B013B9A4240D1C0F30642A36B46
:10530000013B9A423CD1C0F30660E36B013B9842FB
:1053100038D11D4B5B6BC3F3CC03A26C9A4201D115
:10532000002022E0184AD36A23F00103D362FDF77C
:10533000BFF80546FDF7BCF8A842FBD0124A536BF4
:105340006FF3CF03A16C43EAC1035363D36A43F005
:105350000103D362002008E001207047012004E02F
:10536000012002E0012000E0002038BD0120FCE720
:105370000120FAE70120F8E70120F6E70120F4E731
:105380000120F2E70120F0E7004402580CFCFFFF87
:10539000F8B5814B1B6903F03803102B00F0F48043
:1053A000182B0FD0002B40F0F2807B4B1B6813F0C2
:1053B000200F00F0EE80784B1B68C3F3C103774CDD
:1053C000DC40E2E0744B9D6A05F003059C6AC4F37F
:1053D0000514D86A00F001005B6BC3F3CC0303FB38
:1053E00000F0FBF7C9FC0646002C00F0CE80012D32
:1053F00056D0022D00F08480002D40F0A380664B33
:105400001B6813F0200F29D0634F3B68C3F3C1031F
:105410006248D840FBF7B0FC05462046FBF7ACFCE1
:1054200001462846FBF7B4FD0446386BC0F308007C
:10543000FBF7A2FC05464FF064513046FBF7F4FC45
:1054400001462846FBF7E8FB4FF07E51FBF7E4FBF3
:1054500001462046FBF7E8FC044642E02046FBF705
:105460008BFC01464E48FBF793FD04464A4B186BF4
:10547000C0F30800FBF780FC05464FF0645130464E
:10548000FBF7D2FC01462846FBF7C6FB4FF07E51E6
:10549000FBF7C2FB01462046FBF7C6FC044620E0B2
:1054A0002046FBF769FC01463E48FBF771FD0446C8
:1054B000394B186BC0F30800FBF75EFC05464FF054
:1054C00064513046FBF7B0FC01462846FBF7A4FBCD
:1054D0004FF07E51FBF7A0FB01462046FBF7A4FCF2
:1054E00004462D4B1B6BC3F34623581CFBF744FCAF
:1054F00001462046FBF74CFDFBF782FE044644E0E4
:105500002046FBF739FC01462748FBF741FD0446DE
:10551000214B186BC0F30800FBF72EFC05464FF03B
:1055200064513046FBF780FC01462846FBF774FBCC
:105530004FF07E51FBF770FB01462046FBF774FCF1
:105540000446CEE72046FBF717FC01461548FBF75B
:105550001FFD0446104B186BC0F30800FBF70CFC52
:1055600005464FF064513046FBF75EFC0146284685
:10557000FBF752FB4FF07E51FBF74EFB01462046F6
:10558000FBF752FC0446ACE7084C2046F8BD084C3B
:10559000FBE7024CF9E700BF004402580090D0033B
:1055A0000024744C0024744A20BCBE4B40787D011A
:1055B00000093D00002800F0328170B50D46044618
:1055C0009B4B1B6803F00F038B420BD2984A136866
:1055D00023F00F030B431360136803F00F038B4298
:1055E00040F01F81236813F0040F0CD02269914B07
:1055F0009B6903F070039A4205D98E498B6923F0A9
:1056000070031A438A61236813F0080F0CD0626993
:10561000884BDB6903F070039A4205D98549CB6951
:1056200023F070031A43CA61236813F0100F0CD0E3
:10563000A269804BDB6903F4E0639A4205D97D4996
:10564000CB6923F4E0631A43CA61236813F0200F87
:105650000CD0E269774B1B6A03F070039A4205D9BC
:1056600074490B6A23F070031A430A62236813F02B
:10567000020F0CD0E2686F4B9B6903F00F039A4254
:1056800005D96C498B6923F00F031A438A6123689B
:1056900013F0010F41D0674A936923F47063A16846
:1056A0000B4393616368022B0AD0032B27D0012B95
:1056B0002CD0604A126812F0040F06D10120ADE030
:1056C000126812F4003F00F0AE805A490A6922F0D5
:1056D000070213430B61FCF7EBFE0646554B1B69B3
:1056E00003F038036268B3EBC20F16D0FCF7E0FE9C
:1056F000801B41F288339842F0D903208EE04D4A56
:10570000126812F0007FE0D1012087E0494A126858
:1057100012F4807FD9D1012080E0236813F0020FBA
:105720000CD0E268434B9B6903F00F039A4205D209
:1057300040498B6923F00F031A438A613C4B1B6875
:1057400003F00F03AB420AD9394A136823F00F0361
:105750002B431360136803F00F03AB4265D123683A
:1057600013F0040F0CD02269324B9B6903F07003D5
:105770009A4205D22F498B6923F070031A438A613C
:10578000236813F0080F0CD062692A4BDB6903F021
:1057900070039A4205D22749CB6923F070031A435C
:1057A000CA61236813F0100F0CD0A269214BDB698A
:1057B00003F4E0639A4205D21E49CB6923F4E06307
:1057C0001A43CA61236813F0200F0CD0E269194B09
:1057D0001B6A03F070039A4205D216490B6A23F044
:1057E00070031A430A62FFF7D3FD12498B69C3F3B2
:1057F0000323114AD35C03F01F03D8408B6903F0E5
:105800000F03D35C03F01F0320FA03F30B4A13606A
:105810000B4B18600B4B1868FCF7E8FD70BD0120BE
:1058200070470120FAE70120F8E70120F6E700BF02
:105830000020005200440258505C0108000000247F
:10584000040000240C00002408B5FFF7A1FD0B4A5A
:105850009369C3F303230A49CB5C03F01F0320FAC7
:1058600003F3926902F00F02885C00F01F0023FA34
:1058700000F0044A1060044A136008BD0044025856
:10588000505C0108000000240400002408B5FFF764
:10589000DBFF054BDB69C3F30213044AD35C03F05F
:1058A0001F03D84008BD00BF00440258505C0108E7
:1058B00008B5FFF7C9FF054BDB69C3F30223044AB0
:1058C000D35C03F01F03D84008BD00BF004402585A
:1058D000505C0108404B9B6A03F00303032B79D013
:1058E00070B505460E463C4A136823F0806313608A
:1058F000FCF7DEFD0446384B1B6813F0006F06D042
:10590000FCF7D6FD031B022BF5D9032070BD324BEB
:105910009A6A22F47C32296842EA01329A626A6801
:10592000013AC2F30802A9680139490289B20A435F
:10593000E9680139090401F4FE010A4329690139C2
:10594000090601F0FE410A439A63DA6A22F0C002B6
:1059500069690A43DA62DA6A22F02002A9690A4315
:10596000DA62DA6A22F01002DA62DA6B6FF3CF02DF
:10597000E96942EAC102DA63DA6A42F01002DA62E5
:10598000C6B91A46DB6A43F40023D362124A13688D
:1059900043F080631360FCF78BFD04460E4B1B68DD
:1059A00013F0006F14D1FCF783FD001B0228F5D91A
:1059B0000320ABE7012E05D0074AD36A43F4001356
:1059C000D362E3E7044AD36A43F48013D362DDE78A
:1059D00000209BE70120704700440258404B9B6A1F
:1059E00003F00303032B79D070B505460E463C4AFD
:1059F000136823F080531360FCF75AFD0446384BBC
:105A00001B6813F0005F06D0FCF752FD031B022B4E
:105A1000F5D9032070BD324B9A6A22F07C72296856
:105A200042EA01529A626A68013AC2F30802A9681E
:105A30000139490289B20A43E9680139090401F4CC
:105A4000FE010A4329690139090601F0FE410A43B2
:105A50001A64DA6A22F4406269690A43DA62DA6A2D
:105A600022F40072A9690A43DA62DA6A22F48072C7
:105A7000DA625A6C6FF3CF02E96942EAC1025A64F2
:105A8000DA6A42F48072DA62C6B91A46DB6A43F413
:105A90008003D362124A136843F080531360FCF70B
:105AA00007FD04460E4B1B6813F0005F14D1FCF792
:105AB000FFFC001B0228F5D90320ABE7012E05D01F
:105AC000074AD36A43F08073D362E3E7044AD36A98
:105AD00043F40003D362DDE700209BE70120704719
:105AE00000440258F8B50446036813F0006F30D044
:105AF000836EB3F5001F26D00ED8ABB1B3F5801F6F
